{"abi":[{"type":"constructor","inputs":[],"stateMutability":"nonpayable"},{"type":"function","name":"campaignId","inputs":[],"outputs":[{"name":"","type":"uint256","internalType":"uint256"}],"stateMutability":"view"},{"type":"function","name":"campaigns","inputs":[{"name":"id","type":"uint256","internalType":"uint256"}],"outputs":[{"name":"title","type":"string","internalType":"string"},{"name":"description","type":"string","internalType":"string"},{"name":"targetDate","type":"uint256","internalType":"uint256"},{"name":"targetDonation","type":"uint256","internalType":"uint256"},{"name":"owner","type":"address","internalType":"address"}],"stateMutability":"view"},{"type":"function","name":"createCampaign","inputs":[{"name":"_targetDate","type":"uint256","internalType":"uint256"},{"name":"_targetDonation","type":"uint256","internalType":"uint256"},{"name":"_title","type":"string","internalType":"string"},{"name":"_description","type":"string","internalType":"string"},{"name":"_milestones","type":"tuple[]","internalType":"struct Crowdfunding.Milestone[]","components":[{"name":"date","type":"uint256","internalType":"uint256"},{"name":"amount","type":"uint256","internalType":"uint256"},{"name":"description","type":"string","internalType":"string"}]}],"outputs":[],"stateMutability":"nonpayable"},{"type":"function","name":"donation","inputs":[{"name":"id","type":"uint256","internalType":"uint256"}],"outputs":[],"stateMutability":"payable"},{"type":"function","name":"getMilestones","inputs":[{"name":"_campaignId","type":"uint256","internalType":"uint256"}],"outputs":[{"name":"_milestones","type":"tuple[]","internalType":"struct Crowdfunding.Milestone[]","components":[{"name":"date","type":"uint256","internalType":"uint256"},{"name":"amount","type":"uint256","internalType":"uint256"},{"name":"description","type":"string","internalType":"string"}]}],"stateMutability":"view"},{"type":"function","name":"milestones","inputs":[{"name":"id","type":"uint256","internalType":"uint256"},{"name":"","type":"uint256","internalType":"uint256"}],"outputs":[{"name":"date","type":"uint256","internalType":"uint256"},{"name":"amount","type":"uint256","internalType":"uint256"},{"name":"description","type":"string","internalType":"string"}],"stateMutability":"view"},{"type":"function","name":"totalCampaignContribution","inputs":[{"name":"id","type":"uint256","internalType":"uint256"}],"outputs":[{"name":"","type":"uint256","internalType":"uint256"}],"stateMutability":"view"},{"type":"function","name":"userContributions","inputs":[{"name":"id","type":"uint256","internalType":"uint256"},{"name":"","type":"address","internalType":"address"}],"outputs":[{"name":"","type":"uint256","internalType":"uint256"}],"stateMutability":"view"},{"type":"event","name":"CampaignCreated","inputs":[{"name":"campaignId","type":"uint256","indexed":false,"internalType":"uint256"},{"name":"owner","type":"address","indexed":false,"internalType":"address"},{"name":"targetDonation","type":"uint256","indexed":false,"internalType":"uint256"},{"name":"targetDate","type":"uint256","indexed":false,"internalType":"uint256"}],"anonymous":false},{"type":"event","name":"DonationReceived","inputs":[{"name":"donor","type":"address","indexed":false,"internalType":"address"},{"name":"amount","type":"uint256","indexed":false,"internalType":"uint256"}],"anonymous":false}],"bytecode":{"object":"0x6080604052348015600f57600080fd5b50610f428061001f6000396000f3fe60806040526004361061007b5760003560e01c80639f119d5d1161004e5780639f119d5d1461013a578063b276e97e1461015c578063ed54890d14610189578063fdac3254146101c157600080fd5b8063141961bc146100805780631c376c63146100ba57806342c549c0146100e95780638ed5b0fc14610116575b600080fd5b34801561008c57600080fd5b506100a061009b366004610941565b6101d4565b6040516100b19594939291906109a0565b60405180910390f35b3480156100c657600080fd5b506100da6100d53660046109ec565b61031d565b6040516100b193929190610a0e565b3480156100f557600080fd5b50610109610104366004610941565b6103ec565b6040516100b19190610a36565b34801561012257600080fd5b5061012c60005481565b6040519081526020016100b1565b34801561014657600080fd5b5061015a610155366004610b9c565b6105e8565b005b34801561016857600080fd5b5061012c610177366004610941565b60026020526000908152604090205481565b34801561019557600080fd5b5061012c6101a4366004610d2a565b600360209081526000928352604080842090915290825290205481565b61015a6101cf366004610941565b6107c5565b6001602052600090815260409020805481906101ef90610d66565b80601f016020809104026020016040519081016040528092919081815260200182805461021b90610d66565b80156102685780601f1061023d57610100808354040283529160200191610268565b820191906000526020600020905b81548152906001019060200180831161024b57829003601f168201915b50505050509080600101805461027d90610d66565b80601f01602080910402602001604051908101604052809291908181526020018280546102a990610d66565b80156102f65780601f106102cb576101008083540402835291602001916102f6565b820191906000526020600020905b8154815290600101906020018083116102d957829003601f168201915b5050505060028301546003840154600490940154929390929091506001600160a01b031685565b6004602052816000526040600020818154811061033957600080fd5b90600052602060002090600302016000915091505080600001549080600101549080600201805461036990610d66565b80601f016020809104026020016040519081016040528092919081815260200182805461039590610d66565b80156103e25780601f106103b7576101008083540402835291602001916103e2565b820191906000526020600020905b8154815290600101906020018083116103c557829003601f168201915b5050505050905083565b6000818152600460205260409020546060908067ffffffffffffffff81111561041757610417610abc565b60405190808252806020026020018201604052801561046c57816020015b61045960405180606001604052806000815260200160008152602001606081525090565b8152602001906001900390816104355790505b50915060005b818110156105e15760405180606001604052806004600087815260200190815260200160002083815481106104a9576104a9610da0565b90600052602060002090600302016000015481526020016004600087815260200190815260200160002083815481106104e4576104e4610da0565b906000526020600020906003020160010154815260200160046000878152602001908152602001600020838154811061051f5761051f610da0565b9060005260206000209060030201600201805461053b90610d66565b80601f016020809104026020016040519081016040528092919081815260200182805461056790610d66565b80156105b45780601f10610589576101008083540402835291602001916105b4565b820191906000526020600020905b81548152906001019060200180831161059757829003601f168201915b50505050508152508382815181106105ce576105ce610da0565b6020908102919091010152600101610472565b5050919050565b6040805160a0810182528481526020808201859052818301889052606082018790523360808301526000805481526001909152919091208151819061062d9082610e05565b50602082015160018201906106429082610e05565b506040820151600282015560608201516003820155608090910151600490910180546001600160a01b0319166001600160a01b0390921691909117905560005b815181101561076057600060405180606001604052808484815181106106aa576106aa610da0565b60200260200101516000015181526020018484815181106106cd576106cd610da0565b60200260200101516020015181526020018484815181106106f0576106f0610da0565b60209081029190910181015160409081015190925260008054815260048252828120805460018181018355918352918390208551600390930201918255918401519181019190915590820151919250829160028201906107509082610e05565b5050600190920191506106829050565b50600054604080519182523360208301528101859052606081018690527f91b289a829e71d811b8c69e4a24ba2d40d115d8a236e9a724cb3bb2d43cf72239060800160405180910390a16000805490806107b983610eda565b91905055505050505050565b600054811061081b5760405162461bcd60e51b815260206004820152601c60248201527f4d75737420626520616e206578697374696e672063616d706169676e0000000060448201526064015b60405180910390fd5b600034116108645760405162461bcd60e51b815260206004820152601660248201527526bab9ba1039b2b732103730ba34bb32903a37b5b2b760511b6044820152606401610812565b60008181526001602052604090206002015442106108b55760405162461bcd60e51b815260206004820152600e60248201526d10d85b5c185a59db88195b99195960921b6044820152606401610812565b6000818152600360209081526040808320338452909152812080543492906108de908490610ef3565b909155505060008181526002602052604081208054349290610901908490610ef3565b9091555050604080513381523460208201527f264f630d9efa0d07053a31163641d9fcc0adafc9d9e76f1c37c2ce3a558d2c52910160405180910390a150565b60006020828403121561095357600080fd5b5035919050565b6000815180845260005b8181101561098057602081850181015186830182015201610964565b506000602082860101526020601f19601f83011685010191505092915050565b60a0815260006109b360a083018861095a565b82810360208401526109c5818861095a565b6040840196909652505060608101929092526001600160a01b031660809091015292915050565b600080604083850312156109ff57600080fd5b50508035926020909101359150565b838152826020820152606060408201526000610a2d606083018461095a565b95945050505050565b6000602082016020835280845180835260408501915060408160051b86010192506020860160005b82811015610ab057603f19878603018452815180518652602081015160208701526040810151905060606040870152610a9a606087018261095a565b9550506020938401939190910190600101610a5e565b50929695505050505050565b634e487b7160e01b600052604160045260246000fd5b6040516060810167ffffffffffffffff81118282101715610af557610af5610abc565b60405290565b604051601f8201601f1916810167ffffffffffffffff81118282101715610b2457610b24610abc565b604052919050565b600082601f830112610b3d57600080fd5b813567ffffffffffffffff811115610b5757610b57610abc565b610b6a601f8201601f1916602001610afb565b818152846020838601011115610b7f57600080fd5b816020850160208301376000918101602001919091529392505050565b600080600080600060a08688031215610bb457600080fd5b8535945060208601359350604086013567ffffffffffffffff811115610bd957600080fd5b610be588828901610b2c565b935050606086013567ffffffffffffffff811115610c0257600080fd5b610c0e88828901610b2c565b925050608086013567ffffffffffffffff811115610c2b57600080fd5b8601601f81018813610c3c57600080fd5b803567ffffffffffffffff811115610c5657610c56610abc565b8060051b610c6660208201610afb565b9182526020818401810192908101908b841115610c8257600080fd5b6020850192505b83831015610d1857823567ffffffffffffffff811115610ca857600080fd5b85016060818e03601f19011215610cbe57600080fd5b610cc6610ad2565b6020828101358252604083013590820152606082013567ffffffffffffffff811115610cf157600080fd5b610d008f602083860101610b2c565b60408301525083525060209283019290910190610c89565b80955050505050509295509295909350565b60008060408385031215610d3d57600080fd5b8235915060208301356001600160a01b0381168114610d5b57600080fd5b809150509250929050565b600181811c90821680610d7a57607f821691505b602082108103610d9a57634e487b7160e01b600052602260045260246000fd5b50919050565b634e487b7160e01b600052603260045260246000fd5b601f821115610e0057806000526020600020601f840160051c81016020851015610ddd5750805b601f840160051c820191505b81811015610dfd5760008155600101610de9565b50505b505050565b815167ffffffffffffffff811115610e1f57610e1f610abc565b610e3381610e2d8454610d66565b84610db6565b6020601f821160018114610e675760008315610e4f5750848201515b600019600385901b1c1916600184901b178455610dfd565b600084815260208120601f198516915b82811015610e975787850151825560209485019460019092019101610e77565b5084821015610eb55786840151600019600387901b60f8161c191681555b50505050600190811b01905550565b634e487b7160e01b600052601160045260246000fd5b600060018201610eec57610eec610ec4565b5060010190565b80820180821115610f0657610f06610ec4565b9291505056fea26469706673582212201069bd391333271ddb392b87443dd1d06ece60ace9c147240f3bc3c51adc16cf64736f6c634300081a0033","linkReferences":{}},"methodIdentifiers":{"campaignId()":"8ed5b0fc","campaigns(uint256)":"141961bc","createCampaign(uint256,uint256,string,string,(uint256,uint256,string)[])":"9f119d5d","donation(uint256)":"fdac3254","getMilestones(uint256)":"42c549c0","milestones(uint256,uint256)":"1c376c63","totalCampaignContribution(uint256)":"b276e97e","userContributions(uint256,address)":"ed54890d"},"id":25}