{"abi":[{"type":"constructor","inputs":[],"stateMutability":"nonpayable"},{"type":"function","name":"campaignId","inputs":[],"outputs":[{"name":"","type":"uint256","internalType":"uint256"}],"stateMutability":"view"},{"type":"function","name":"campaigns","inputs":[{"name":"id","type":"uint256","internalType":"uint256"}],"outputs":[{"name":"title","type":"string","internalType":"string"},{"name":"description","type":"string","internalType":"string"},{"name":"targetDate","type":"uint256","internalType":"uint256"},{"name":"targetDonation","type":"uint256","internalType":"uint256"},{"name":"owner","type":"address","internalType":"address"}],"stateMutability":"view"},{"type":"function","name":"contributions","inputs":[{"name":"id","type":"uint256","internalType":"uint256"},{"name":"","type":"address","internalType":"address"}],"outputs":[{"name":"","type":"uint256","internalType":"uint256"}],"stateMutability":"view"},{"type":"function","name":"createCampaign","inputs":[{"name":"_targetDate","type":"uint256","internalType":"uint256"},{"name":"_targetDonation","type":"uint256","internalType":"uint256"},{"name":"_title","type":"string","internalType":"string"},{"name":"_description","type":"string","internalType":"string"},{"name":"_milestones","type":"tuple[]","internalType":"struct Crowdfunding.Milestone[]","components":[{"name":"date","type":"uint256","internalType":"uint256"},{"name":"amount","type":"uint256","internalType":"uint256"},{"name":"description","type":"string","internalType":"string"}]}],"outputs":[],"stateMutability":"nonpayable"},{"type":"function","name":"donation","inputs":[{"name":"id","type":"uint256","internalType":"uint256"}],"outputs":[],"stateMutability":"payable"},{"type":"function","name":"milestones","inputs":[{"name":"id","type":"uint256","internalType":"uint256"},{"name":"","type":"uint256","internalType":"uint256"}],"outputs":[{"name":"date","type":"uint256","internalType":"uint256"},{"name":"amount","type":"uint256","internalType":"uint256"},{"name":"description","type":"string","internalType":"string"}],"stateMutability":"view"},{"type":"event","name":"CampaignCreated","inputs":[{"name":"campaignId","type":"uint256","indexed":false,"internalType":"uint256"},{"name":"owner","type":"address","indexed":false,"internalType":"address"},{"name":"targetDonation","type":"uint256","indexed":false,"internalType":"uint256"},{"name":"targetDate","type":"uint256","indexed":false,"internalType":"uint256"}],"anonymous":false},{"type":"event","name":"DonationReceived","inputs":[{"name":"donor","type":"address","indexed":false,"internalType":"address"},{"name":"amount","type":"uint256","indexed":false,"internalType":"uint256"}],"anonymous":false}],"bytecode":{"object":"0x6080604052348015600f57600080fd5b50610c1c8061001f6000396000f3fe6080604052600436106100555760003560e01c8063141961bc1461005a5780631c376c63146100945780633d891f59146100c35780638ed5b0fc146101095780639f119d5d1461011f578063fdac325414610141575b600080fd5b34801561006657600080fd5b5061007a6100753660046106a1565b610154565b60405161008b959493929190610700565b60405180910390f35b3480156100a057600080fd5b506100b46100af36600461074c565b61029d565b60405161008b9392919061076e565b3480156100cf57600080fd5b506100fb6100de366004610796565b600260209081526000928352604080842090915290825290205481565b60405190815260200161008b565b34801561011557600080fd5b506100fb60005481565b34801561012b57600080fd5b5061013f61013a3660046108b2565b61036c565b005b61013f61014f3660046106a1565b610548565b60016020526000908152604090208054819061016f90610a40565b80601f016020809104026020016040519081016040528092919081815260200182805461019b90610a40565b80156101e85780601f106101bd576101008083540402835291602001916101e8565b820191906000526020600020905b8154815290600101906020018083116101cb57829003601f168201915b5050505050908060010180546101fd90610a40565b80601f016020809104026020016040519081016040528092919081815260200182805461022990610a40565b80156102765780601f1061024b57610100808354040283529160200191610276565b820191906000526020600020905b81548152906001019060200180831161025957829003601f168201915b5050505060028301546003840154600490940154929390929091506001600160a01b031685565b600360205281600052604060002081815481106102b957600080fd5b9060005260206000209060030201600091509150508060000154908060010154908060020180546102e990610a40565b80601f016020809104026020016040519081016040528092919081815260200182805461031590610a40565b80156103625780601f1061033757610100808354040283529160200191610362565b820191906000526020600020905b81548152906001019060200180831161034557829003601f168201915b5050505050905083565b6040805160a081018252848152602080820185905281830188905260608201879052336080830152600080548152600190915291909120815181906103b19082610ac9565b50602082015160018201906103c69082610ac9565b506040820151600282015560608201516003820155608090910151600490910180546001600160a01b0319166001600160a01b0390921691909117905560005b81518110156104e3576003600080548152602001908152602001600020604051806060016040528084848151811061044057610440610b88565b602002602001015160000151815260200184848151811061046357610463610b88565b602002602001015160200151815260200184848151811061048657610486610b88565b6020908102919091018101516040908101519092528354600181810186556000958652948290208451600390920201908155908301519381019390935581015190919060028201906104d89082610ac9565b505050600101610406565b50600054604080519182523360208301528101859052606081018690527f91b289a829e71d811b8c69e4a24ba2d40d115d8a236e9a724cb3bb2d43cf72239060800160405180910390a160008054908061053c83610bb4565b91905055505050505050565b600054811061059e5760405162461bcd60e51b815260206004820152601c60248201527f4d75737420626520616e206578697374696e672063616d706169676e0000000060448201526064015b60405180910390fd5b600034116105e75760405162461bcd60e51b815260206004820152601660248201527526bab9ba1039b2b732103730ba34bb32903a37b5b2b760511b6044820152606401610595565b60008181526001602052604090206002015442106106385760405162461bcd60e51b815260206004820152600e60248201526d10d85b5c185a59db88195b99195960921b6044820152606401610595565b600081815260026020908152604080832033845290915281208054349290610661908490610bcd565b9091555050604080513381523460208201527f264f630d9efa0d07053a31163641d9fcc0adafc9d9e76f1c37c2ce3a558d2c52910160405180910390a150565b6000602082840312156106b357600080fd5b5035919050565b6000815180845260005b818110156106e0576020818501810151868301820152016106c4565b506000602082860101526020601f19601f83011685010191505092915050565b60a08152600061071360a08301886106ba565b828103602084015261072581886106ba565b6040840196909652505060608101929092526001600160a01b031660809091015292915050565b6000806040838503121561075f57600080fd5b50508035926020909101359150565b83815282602082015260606040820152600061078d60608301846106ba565b95945050505050565b600080604083850312156107a957600080fd5b8235915060208301356001600160a01b03811681146107c757600080fd5b809150509250929050565b634e487b7160e01b600052604160045260246000fd5b6040516060810167ffffffffffffffff8111828210171561080b5761080b6107d2565b60405290565b604051601f8201601f1916810167ffffffffffffffff8111828210171561083a5761083a6107d2565b604052919050565b600082601f83011261085357600080fd5b813567ffffffffffffffff81111561086d5761086d6107d2565b610880601f8201601f1916602001610811565b81815284602083860101111561089557600080fd5b816020850160208301376000918101602001919091529392505050565b600080600080600060a086880312156108ca57600080fd5b8535945060208601359350604086013567ffffffffffffffff8111156108ef57600080fd5b6108fb88828901610842565b935050606086013567ffffffffffffffff81111561091857600080fd5b61092488828901610842565b925050608086013567ffffffffffffffff81111561094157600080fd5b8601601f8101881361095257600080fd5b803567ffffffffffffffff81111561096c5761096c6107d2565b8060051b61097c60208201610811565b9182526020818401810192908101908b84111561099857600080fd5b6020850192505b83831015610a2e57823567ffffffffffffffff8111156109be57600080fd5b85016060818e03601f190112156109d457600080fd5b6109dc6107e8565b6020828101358252604083013590820152606082013567ffffffffffffffff811115610a0757600080fd5b610a168f602083860101610842565b6040830152508352506020928301929091019061099f565b80955050505050509295509295909350565b600181811c90821680610a5457607f821691505b602082108103610a7457634e487b7160e01b600052602260045260246000fd5b50919050565b601f821115610ac457806000526020600020601f840160051c81016020851015610aa15750805b601f840160051c820191505b81811015610ac15760008155600101610aad565b50505b505050565b815167ffffffffffffffff811115610ae357610ae36107d2565b610af781610af18454610a40565b84610a7a565b6020601f821160018114610b2b5760008315610b135750848201515b600019600385901b1c1916600184901b178455610ac1565b600084815260208120601f198516915b82811015610b5b5787850151825560209485019460019092019101610b3b565b5084821015610b795786840151600019600387901b60f8161c191681555b50505050600190811b01905550565b634e487b7160e01b600052603260045260246000fd5b634e487b7160e01b600052601160045260246000fd5b600060018201610bc657610bc6610b9e565b5060010190565b80820180821115610be057610be0610b9e565b9291505056fea2646970667358221220c8840fdf170705216bf5b78c632912510f86f14aa74eaf27a375d60d4691222964736f6c634300081a0033","linkReferences":{}},"methodIdentifiers":{"campaignId()":"8ed5b0fc","campaigns(uint256)":"141961bc","contributions(uint256,address)":"3d891f59","createCampaign(uint256,uint256,string,string,(uint256,uint256,string)[])":"9f119d5d","donation(uint256)":"fdac3254","milestones(uint256,uint256)":"1c376c63"},"id":20}